:400000000080002011000000750400007504000008B5044B1A6803F53F5302331A6000F031FA00BFFA46004010B5054C237833B9044B13B10448AFF300800123237010BD5A
:400040004081FF1F0000000034140000084B10B51BB108490848AFF300800848036803B910BD074B002BFBD0BDE81040184700BF000000004481FF1F34140000C880FF1F82
:400080000000000038B505460C46002100F056FC204600F0A5FC0121284600F04FFC204600F0CAFC064C2080012000F0C5FC80B2044B188023881B029BB21844208038BD92
:4000C0007081FF1F8C81FF1F38B505460C46002100F034FC204600F083FC0121284600F02DFC204600F0A8FC094C2080094B1870012000F0A1FC82B2074B1A80074B18700A
:4001000023881B029BB21344C3F3CC03238038BD7281FF1F6C81FF1F6E81FF1F7881FF1F70B562B600F0CCFD00F04CFA00F08AFE0021402000F0C2FB3E4B1B78002BF7D115
:4001400001214020FFF79EFF02214020FFF7BCFF00F02AFC0021402000F0F0FB002000F03FFCAB2000F03CFC3F2000F039FC0022314B1A60314B188841F2791303FB00F021
:40018000002801DA00F6FF70001300F04FFF06462B4D288800F04AFF314600F09BFF294901F04CF804460021084600F097FD264800F028FD0321002000F090FD1F4B1888A6
:4001C00000F0BAFD0921002000F088FD1F4800F019FD0B21002000F081FD304601F0CAF880B200F0A9FD0021012000F077FD184800F008FD0321012000F070FD288800F044
:400200009BFD0A21012000F069FD124800F0FAFC0C21012000F062FD204601F0ABF880B200F08AFD204601F0A5F8C0B200F018FE7EE700BF8481FF1F8881FF1F7081FF1F1B
:400240007281FF1F00409C45381400003C1400004014000044140000FEE700BFF0B40022174611E050F82760F3B226F0FF0608E001EB420511F812406D78A5550132013BF9
:40028000DBB2002BF4D10137192FEBD9F0BC7047064B1B78DBB203F00701054A11701B09013213704422034B1A707047CF0100496E5800407658004008B50A46002101F0C3
:4002C000B0F808BD38B54FF49C72244B1A80182202331A70022203F27E231A7008224FF040231A70032103F5007319701C4B1B78DBB21C490B701C4B1A8041F25122023B54
:400300001A80002419250CE0184B1B7803F0010343EA440404F003044FF4F07000F0BCFD013D0DB1032CEFD115B90320FFF794FF0F4B4FF480721A8007221A7000220D4973
:400340000A704820023108701A700222033B1A70094A137843F00103137038BD8040004008010049A146004022420040254200400440004006400040A243004008B501F04C
:4003800045F808BD38B572B62B4A137843F00403137000240CE0294D630019194A0011462A44084691882858FFF786FF0134E4B2072CF0D922494FF09040FFF74FFF214AED
:4003C000137843F0020313701032137843F0020313701D4C237843F040032370A2F58632513A137843F0100313700A2217491848FFF7C4FF082217491748FFF7BFFF082288
:4004000016491748FFF7BAFF164A137843F008031370154D61232B70FFF754FF81232B700122124B1A70FFF733FF0E2221461048FFF7A4FF38BD00BFE84600404814000062
:400440006800004803500140A04300407C0300480051004088030048C25100409003004812510040224300400048004004000840B043004008B500F09DFF03680C2B00D1B1
:40048000FEE7FEE708B5104E104D16E029686B68AC68002204E051F8040B43F8040B0432A242F8D1E868002203E0002143F8041B04328242F9D11035013E002EE6D100F014
:4004C0007FFFFFF72DFEFEE701000000B014000008B5104A104B1A60104A136843F40073136000230AE0032B03D80D4A52F8231000E00C490C4A42F8231001332F2BF2D99A
:400500000A4B1A780A4B1A70074A0A4B1A60FFF739FF08BD0004FA050CED00E014ED00E000000000750400000080FF1FBC760040C080FF1F08ED00E038B50222114B1A7072
:4005400081220E3B1A70082202331A700F2511331D70002401331C704FF400420A4B1A600721284600F028FC0849284600F010FC1022074B1A70074B1C70074B1C70074B5E
:400580001C7038BDD649004080E100E0ED0500009081FF1F9681FF1F9E81FF1F9481FF1F08B500F081FC064A137843F0040313701032137843F00403137000F079FC08BDDE
:4005C000A543004008B5074B1B7823B9FFF7B4FF0122044B1A70FFF7E3FF4FF40042024B1A6008BD5C81FF1F00E100E038B5A54B1C78A54B1B7813F0400F00F03A81E4B284
:4006000014F0010F00F01D819F4B1B78453B052B00F21481DFE813F006008200120112010600DF0004F0DF0504F00A04082C42D1954B1B78DBB2452B35D1944B1B7813F0FB
:40064000FF0F10D0924B1B681B78DBB2914A137004228C4B1A7001228F4B1A7046228A4B1A702C46EDE08D4B1B7813F0020F0DD08B4A137843F00A0313706022824B1A7042
:400680004FF40042874B1A602C46DAE0864A137843F0100313701022844B1A700422023B1A702C46CDE00022764B1A704A22764B1A702C46C5E00A2C2BD1794A137843F094
:4006C000A0031370754B1B7813F0020F14D06E4B1B7813F0080F01D0092300E00A23704A11780B4313706022674B1A704FF400426C4B1A602C46A4E06B4A137843F0100315
:4007000013701022694B1A700422023B1A702C4697E0002000F01AFB2C4692E014F0020F36D15D4B1A78D2B2584B1B78DBB29A4210D2594A1378DBB255490968CB5CDBB20E
:4007400054490B7004214F4B197013780133DBB2137076E0514B1B7813F0020F0CD0504A137843F00A0313706022474B1A704FF400424C4B1A6064E04B4A137843F010030F
:4007800013701022494B1A700422023B1A7058E0424B1B7813F0020F0CD0414A137843F09A0313706022384B1A704FF400423D4B1A6046E03C4A137843F010031370102280
:4007C0003A4B1A700422023B1A70354A137843F09003137035E0364A1378DBB2354908682C490978C9B2C15413780133DBB213701278D2B2304B1B78DBB29A4203D210222E
:40080000204B1A701DE0254B1B7813F0020F0CD0234A137843F00903137060221A4B1A704FF400421F4B1A600BE01F4A137843F0100313700022134B1A7002E0002000F09B
:4008400085FA14F0200F1CD00F4B1B7813F0080F01D0012300E00223114A11780B431370114A137803F0EF0313701022064B1A7038BD054B1B7813F0100F02D11022024B7D
:400880001A7038BDD74900409081FF1F9581FF1FA081FF1FD84900409481FF1F9C81FF1F9681FF1F80E100E0D6490040D94900409E81FF1F9881FF1F9D81FF1F1A4B1B7809
:4008C000DBB2102B29D1194B1B7813F0080F26D14FF40042164B1A604000C0B229B140F001004922104B1A7002E045220E4B1A70104B1870012201331A700F4B1B7813F0E1
:40090000010FFAD00C4B1B7803F00A030A2B08D11022054B1A700320704702207047012070470020704700BF9081FF1FD949004080E100E0D8490040D7490040164B1B7831
:4009400013F0040F23D04000C0B229B140F001004922124B1A7002E04522104B1A70104B1870122201331A700422023B1A700D4B1B7813F0010FFAD00A4B1B7803F00A03BF
:400980000A2B06D11022054B1A7003207047022070470020704700BFD94900409081FF1FD8490040D74900400A4B1B7813F0040F0ED01023074A13700421023A1170064A6F
:4009C0001370064B1B7813F0210FFAD00020704702207047D94900409081FF1FD7490040114B1B7813F0040F1BD0104B18700422013B1A7046220E4B1A700E4B1B7813F0F9
:400A0000010FFAD00B4B1B7813F0020F04D16022074B1A70002070476022054B1A70032070470220704700BFD9490040D84900409081FF1FD7490040114B1B7813F0040FB0
:400A40001BD0104B1B78DBB2492B05D100220E4B1A704A220B4B1A700B4B1B7813F0010FFAD00A4B1B78DBB218B11021064A117004E06021034A117000E000231846704724
:400A8000D94900409081FF1FD7490040D849004010B50B4C237803F09F032370237803F0F00323702378184340F010002070012000F064F9237803F0EF03237010BD00BF1E
:400AC000C051004038B505460E4C237843F020032370237803F0BF032370002000F04EF9237803F0F003237023781D4345F010052570012000F042F9237803F0EF03237008
:400B000038BD00BFC051004070B5354B1A7802F08002D2B21A7033490A7802F0F00242F00F020A7001310A7802F0F0020A7001310A7802F0F0020A701A7802F0DF021A7045
:400B40001A7842F040021A704FF4CA76002000F015F9234D2B7843F010032B70012000F00DF9214B1C78E4B22B7803F0EF032B70002000F003F904F00804E4B22B7843F008
:400B800010032B70012000F0F9F82B7803F0EF032B7014B90A2000F0F1F8013E0CB1002ED4D10F4A137803F0BF031370137803F08003DBB213700232137803F0F00313706E
:400BC0000132137803F0F00343F00F0313700132137803F0F00343F00F03137070BD00BFC0510040C2510040C151004010B50446FFF78AFF2009FFF765FF04F00F00FFF731
:400C000061FF10BD38B505460078012404E0FFF7EDFF285D0134E4B20028F8D138BD00BF08B5FFF7E3FF08BD10B50446FFF76CFF2009FFF72DFF04F00F00FFF729FF10BDF4
:400C400008B5282000F084F80320FFF721FF052000F07EF80320FFF71BFF0F2000F078F80320FFF715FF012000F072F80220FFF70FFF052000F06CF80620FFF7D5FF0E2018
:400C8000FFF7D2FF2C20FFF7CFFF0820FFF7CCFF0120FFF7C9FF0C20FFF7C6FF0320FFF7C3FF052000F054F808BD00BF08B50C20FFF7BAFF0122014B1A7008BD5D81FF1F9C
:400CC00008B5054B5B7823B9FFF7BAFF0122024B5A70FFF7EBFF08BD5D81FF1F08B5032819D8DFE800F002070D1381F08000FFF79BFF08BDA1F14000C0B2FFF795FF08BD1C
:400D0000A1F16C00C0B2FFF78FFF08BDA1F12C00C0B2FFF789FF08BD38B504460309054DE85CFFF77DFF04F00F04285DFFF778FF38BD00BF7814000010B50446000AFFF7F4
:400D4000EBFFE0B2FFF7E8FF10BD00BF01BE704710B5044605E0084B186800F09DF8A4F50044B4F5004FF6D8034B586800FB04F000F092F810BD00BFCC80FF1F08B5034BB1
:400D80001B7A00FB03F000F087F808BDCC80FF1F70B504460E46074B1D681F2802D90020FFF7D4FF04F01F04103455F8240045F8246070BD08ED00E038B504460D46072924
:400DC00002D90020FFF7C2FF1F2C02D90020FFF7BDFF04F01F0000F1604000F564406D01EDB2057038BD00BF7222074B1A702022013B1A7006225D3B1A70472210331A70DE
:400E000000224F331A7070478164004010B500F04BF804460A4A137843F020031370013A137843F0100313700232137843F01003137000F021F8204600F03AF810BD00BF7A
:400E40009164004008B5054B1B7823B9FFF7CCFF0122024B1A70FFF7D9FF08BD5F81FF1F034B1B7813F0040FFAD1024B187070476264004042640040054A137843F001032A
:400E800013701032137843F001031370704700BFA2430040000000000230800803D000BF01380046FCD17047EFF3108072B6704780F31088704700BF80F0004002E000BF1B
:400EC00081F0004142001FBF5FEA410392EA030F7FEA226C7FEA236C6AD04FEA1262D2EB1363C1BFD218414048404140B8BF5B42192B88BF704710F0004F40F4000020F01F
:400F00007F4018BF404211F0004F41F4000121F07F4118BF494292EA030F3FD0A2F1010241FA03FC10EB0C00C3F1200301FA03F100F0004302D5494260EB4000B0F5000FD2
:400F400013D3B0F1807F06D340084FEA310102F10102FE2A51D2B1F1004F40EBC25008BF20F0010040EA03007047490040EB000010F4000FA2F10102EDD1B0FA80FCACF196
:400F8000080CB2EB0C0200FA0CF0AABF00EBC25052421843BCBFD0401843704792F0000F81F4000106BF80F400000132013BB5E74FEA41037FEA226C18BF7FEA236C21D00B
:400FC00092EA030F04D092F0000F08BF0846704790EA010F1CBF0020704712F07F4F04D1400028BF40F00040704712F100723CBF00F50000704700F0004343F0FE4040F40F
:40100000000070477FEA226216BF08467FEA23630146420206BF5FEA412390EA010F40F4800070474FF0000304E000BF10F0004348BF40425FEA000C08BF704743F0964378
:4010400001464FF000001CE050EA010208BF70474FF000030AE000BF50EA010208BF704711F0004302D5404261EB41015FEA010C02BF84460146002043F0B64308BFA3F193
:401080008053A3F50003BCFA8CF2083AA3EBC25310DB01FA02FC634400FA02FCC2F12002BCF1004F20FA02F243EB020008BF20F00100704702F1200201FA02FCC2F12002A5
:4010C00050EA4C0021FA02F243EB020008BF20EADC7070474FF0FF0C1CEAD0521EBF1CEAD15392EA0C0F93EA0C0F6FD01A4480EA010C400218BF5FEA41211ED04FF0006347
:4011000043EA501043EA5111A0FB01310CF00040B1F5000F3EBF490041EAD3715B0040EA010062F17F02FD2A1DD8B3F1004F40EBC25008BF20F00100704790F0000F0CF060
:40114000004C08BF49024CEA502040EA51207F3AC2BFD2F1FF0340EAC250704740F400004FF00003013A5DDC12F1190FDCBF00F000407047C2F10002410021FA02F1C2F190
:40118000200200FA02FC5FEA310040F1000053EA4C0308BF20EADC70704792F0000F00F0004C02BF400010F4000F013AF9D040EA0C0093F0000F01F0004C02BF490011F411
:4011C000000F013BF9D041EA0C018FE70CEAD15392EA0C0F18BF93EA0C0F0AD030F0004C18BF31F0004CD8D180EA010000F00040704790F0000F17BF90F0004F084691F085
:40120000000F91F0004F14D092EA0C0F01D142020FD193EA0C0F03D14B0218BF084608D180EA010000F0004040F0FE4040F40000704740F0FE4040F4400070474FF0FF0CD0
:401240001CEAD0521EBF1CEAD15392EA0C0F93EA0C0F69D0A2EB030280EA010C49024FEA402037D04FF0805343EA111143EA10130CF000408B4238BF5B0042F17D024FF4E2
:40128000000C8B4224BF5B1A40EA0C00B3EB510F24BFA3EB510340EA5C00B3EB910F24BFA3EB910340EA9C00B3EBD10F24BFA3EBD10340EADC001B0118BF5FEA1C1CE0D187
:4012C000FD2A3FF650AF8B4240EBC25008BF20F0010070470CF0004C4CEA50207F32C2BFD2F1FF0340EAC250704740F400004FF00003013A37E792F0000F00F0004C02BFC5
:40130000400010F4000F013AF9D040EA0C0093F0000F01F0004C02BF490011F4000F013BF9D041EA0C0195E70CEAD15392EA0C0F08D142027FF47DAF93EA0C0F7FF470AFE3
:40134000084676E793EA0C0F04D14B023FF44CAF08466EE730F0004C18BF31F0004CCAD130F000427FF45CAF31F000437FF43CAF5FE700BF42000ED2B2F1FE4F0BD34FF016
:401380009E03B3EB126209D44FEA002343F0004323FA02F070474FF00000704712F1610F01D1420202D14FF0FF3070474FF00000704700BF014B1868704700BF3C81FF1FBC
:4013C0000E4B70B51E460E4C0025E41AA410A54204D056F8253098470135F8E700F056F8084B094C1E46E41AA4100025A54204D056F8253098470135F8E770BD981400003C
:401400009814000098140000A014000010B5431E0A44914204D011F8014B03F8014FF8E710BD03460244934202D003F8011BFAE7704700000000000056733A00493A0000CE
:4014400056623A00503A0000C84900401900205100405000F0510040100000000140001000140140000800400140000A004C014000020050014020003031323334353637DF
:40148000383941424344454643000000F8B500BFF8BC08BC9E4670474D000000D1040000F8B500BFF8BC08BC9E46704729000000C0140000C880FF1F780000006800000080
:4014C000000000000000E02EC05D00001800000000366E01000000000000000000000000000000000000000000000000000000000000000088140000000000000000000068
:4015000000000000000000000000000000000000000000000000000000000000000000000000000000000000000000000000000000000000DC80FF1F000000000000000031
:40154000000000000000000000000000000000000000000000000000000000000000000000000000000000000000000000000000000000000000000000000000000000006B
:40158000000000000000000000000000000000000000000000000000000000000000000000000000000000000000000000000000000000000000000000000000000000002B
:4015C00000000000000000000000000000000000000000000000000000000000000000000000000000000000000000000000000000000000000000000000000000000000EB
:4016000000000000000000000000000000000000000000000000000000000000000000000000000000000000000000000000000000000000000000000000000000000000AA
:020000040003F7
:0200000480007A
:4000000003520040036400406000014039010140640201403B03014009050140020B0140010D0140011501400117014001190140011B0140024001400D4101400942014050
:400040000243014001450140074601400347014003480140024901400C4C0140014D0140025001400251014000010103040780388172820F020407010A020C041001160452
:4000800018042202240128012F01300432023401350138023E043F10402641014203440445C0470E481249FF4AFF4BFF4C624DA04EF04F41500C54185604580459045A047E
:4000C0005B045F016640670269106A306B106D106E106F128080810884C08723883C89338AC28B0C8CFF8D1F8F20901C913F92E194E795049618990C9AE39D019E049F8036
:40010000A010A408A51CA723A818A903AB40AC44AD02AF80B1C0B238B310B41FB50FB6C0B72CBA20BBA0BF05D602D712D804D904DB04DF01001002800301051006A007011A
:4001400009100A400B200EA610A01110179A19281A041B011C101D101E011F1020042440257026D42B012EA02F1A340237993B083DA03E06405241204880492053045A01FF
:400180005E086004614063806C206D186E407602771AC0FBC2FEC4FECA78CCF0CEF2D00FD204D641D80D004005370615081309370A040C130E0C10031214140A15011614AD
:4001C000170619241B111D121F2926082820301031083240333034203507360F3A803B803E1540124106460C47BE483449FF4AFF4BFF4EF04F44500C5401580459045A04C1
:400200005B045F0166C06A406B028203840C8580867187138B0C8C1494DC952C962297439C109D719EAC9F06A010A240A308A409A6D0A971AA20AB0EB01FB130B30FB4E071
:40024000B5C0B922BA20BB08BF01C004C540C9FFCA07CBFFCC40CD20CEF0CF05D008D804D904DA04DF01E040E1A8E240E3200004010202010408055209880D080F801080CB
:400280001204130816081708180419321DC01E5420402118230826012715291131483794380839203D184040430C45804604488049014D2050045204560957C05C205E44EC
:4002C0005F0291109F81A104A601A70AAB40AD48C0FDC235C46ECA05CC7ACE66D031D220D6F0E208AA10AB12AF80B208B302B420B780E880EC10E880EC10E208EA01EA0482
:40030000EA04EA013310CC10010203010401500853025D808702AB10C070D4A0D620E210EA203E109D80A808AF01B102B401CE20E840EA8096109D80850495089820A11050
:40034000B020B510E801EC0895089820A1109610A980EA20AA10EA8010801320150878207D2095089820A110A480A880C40EDE03AB2000010801000303C000000B0004083C
:400380000B000B0000000000007F7F0000000000000B0B00000000000000000000000000000000000000000000000000000000000000000000000000000000000000000013
:4003C00000000000000000000000000000000000000000000000000000000000000000000000000000000000000000000000000000000000000000000000000000000000FD
:4004000000000000000000000000000000000000000000000000000000000000000000000000000000000000000000000000000000000000000000000000000000000000BC
:40044000000000000000000000000000000000000000000000000000000000000000000000000000000000000000000000000000000000000000000000000000000000007C
:40048000000000000000000000000000000000000000000000000000000000000000000000000000000000000000000000000000000000000000000000000000000000003C
:0200000490006A
:0400000000004005B7
:0200000490105A
:04000000BC90ACAF55
:0200000490303A
:02000000BDD071
:0200000490402A
:4000000000000000000000000000000000000000000000000000000000000000000000000000000000000000000000000000000000000000000000000000000000000000C0
:400040000000000000000000000000000000000000000000000000000000000000000000000000000000000000000000000000000000000000000000000000000000000080
:400080000000000000000000000000000000000000000000000000000000000000000000000000000000000000000000000000000000000000000000000000000000000040
:4000C0000000000000000000000000000000000000000000000000000000000000000000000000000000000000000000000000000000000000000000000000000000000000
:0200000490501A
:0C00000000012E16106900012E1ECE39E2
:00000001FF